:040000000C949406C2
:080024000C94BA300C94C330B7
:04003C000C940630EA
:040048000C94D83309
:080050000C9401350C94A5315C
:040060000C94B93013
:0C0070000C948C310C9498310C94723478
:040080000C942A357D
:14008C00922C952C982C352D9B2C9E2CA12CA42CA72CB02CDE
:1400A000B32CB62CB92CAA2CC92CAC2CBC2CBF2CAE2CC22C68
:1400B400C92CC52CC92CC72CF92CFC2CFF2C352D022D052D2F
:1400C800082D0B2D0E2D1A2D1D2D202D112D142D302D162D7F
:1400DC00232D262D182D292D302D2C2D302D2E2D10840000D0
:1400F00000F800004C0096007C00AE008A001801AE00300176
:14010400BB009600EB00AE00F70018011B01300128019600E1
:140118005801AE0073006001A30078010401600134017801C8
:14012C0072016001A20178014F4646004F4E20004E554C4CFC
:140140002000477565737400557365722000537570657200B5
:140154001E0041008200B9001E00F000820068011E009F0146
:1401680082001702AF0041001301B900000000003C003200BD
:14017C00AF00F0001301680100003200C8005A0000005A00A5
:14019000C800820000008200C800AA000000AA00C800D200D9
:1401A4000000D200C800FA000000FA00C800220100002201AB
:1401B800C8004A0100004A01C8007201000000003C0032002C
:1401CC003F015D018A018F013F01C4008A01F6008B01C40091
:1401E000D601F600D701C4002202F6003F01F700890129019D
:1401F4008B01F700D6012901D701F700220229013F012A01EB
:140208008A015C018B012A01D6015C01D7012A0122025C018B
:14021C008B015D01D6018F01D7015D0122028F01120264001B
:140230003A028700B801C800DB01EB0095014A01CC0186017A
:140244003101F0009501860132018C008C01E2008C018C0020
:14025800E601E200E6018C004002E20040028C009A02E200E6
:14026C003201E2008C0138018C01E200E6013801E601E2004B
:14028000400238014002E2009A023801320138018C018E016E
:140294008C013801E6018E01E601380140028E0140023801AE
:1402A8009A028E0132018E018C01E4018C018E01E601E401FB
:1402BC00E6018E014002E40140028E019A02E4017602640063
:1402D0009E028700400198017701CC0186019801BD01CC0129
:1402E400CC0198010302CC01F401C8001C02EB004501FF00C3
:1402F800B3013B01C701FF0035023B010802C8003A02EB00CF
:14030C00400190018B01C2014001F7008B0129018C01F7004A
:14032000D7012901D801F7002302290140012A018B015C0153
:140334008C012A01D7015C01D8012A0123025C0140015D01A3
:140348008B018F018C015D01D7018F01D8015D0123028F0146
:14035C008B019001D701C201D80190012302C2014001BE0084
:140370008B01F0008C01BE00D701F000D801BE002302F0003E
:14038400120264003A028700080034008A0062000800620098
:140398008A009000080090008A00BE000800BE008A00EC001B
:1403AC000800EC008A001A0108001A018A004801080048015D
:1403C0008A007601080076018A00A4010800A4018A00D20170
:1403D400E40200001F032D00DB01F00026022701120264004C
:1403E8003A0287006C01AF00DA011D010E02AF007C021D01CE
:1403FC006C014B01DA01B9010E024B017C02B9018002500039
:14041000BC0278003A01A6007901D1007A01A600B801D100CB
:14042400BA01A600F801D100FA01A6003802D1003A02A6000B
:140438007802D1007802A600B802D100B802A600F802D1008F
:14044C003A01F900790124017A01F900B8012401BA01F900C3
:14046000F8012401FA01F900380224013A02F9007802240143
:140474007802F900B8022401B802F900F80224013A014C01C8
:14048800790177017A014C01B8017701BA014C01F8017701FC
:14049C00FA014C01380277013A024C017802770178024C0110
:1404B000B8027701B8024C01F8027701DA02640002038700C1
:1404C4004501FF009A013B01C701FF001C023B010802C80015
:1404D8003A02EB004501FF009A013B01C701FF001C023B01AC
:1404EC000802C8003A02EB004501FF009A013B01C701FF0020
:140500001C023B010802C8003A02EB003E0110018B01430174
:140514008C011001D8014301D9011001250243010802C800F0
:140528003A02EB002800600064003B0196006000D2003B016C
:14053C000401600040013B0172016000AE013B01E0016000CA
:140550001C023B014E0260008A023B01BC026000F8023B0171
:14056400BE008A01FF00BC01BE00BC01FF00EE01BE00EE0168
:14057800FF002002BE002002FF0052020B028A014C02BC0178
:14058C000B02BC014C02EE010B02EE014C0220020B022002B9
:1405A0004C02520250028501B402E901B40285011803E901EC
:1405B4005002E901B4024D02B402E90118034D02A4016E00D5
:1405C800E001AA00A4010401E0014001D00230020C0358025B
:1405DC00A4019001E001CC0102020202020202000002000215
:1405F0000202020200010200020002020200020000020002DE
:14060400020200030A0A0A0A0A0A0A030300010202444957A6
:14061800454E20312E300046555941204D414E2D31004D456B
:14062C00443336302E322E31004C4F474F2E424D5000004C94
:140640002E424D500000555342204552524F520000546865E4
:140654002055534220646576696365206861732064697363D9
:140668006F6E6E65637465642C6F72206E6F7420636F6E6EE2
:14067C0065637465642E000054686520555342206465766944
:1406900063652068617320646973636F6E6E65637465642CF3
:1406A4006F72206E6F7420636F6E6E65637465642E0000737C
:1406B80075636365737300004469736B207374617475732039
:1406CC006572726F722C206D617920626520636F6E6E6563E0
:1406E00074696E67206F7220646973636F6E6E6563742E00DB
:1406F400004469736B2066696C652073797374656D20646FEF
:140708006573206E6F7420737570706F72742E000044697309
:14071C006B2066696C6520697320746F6F2066756C6C2C2011
:140730007468652072656D61696E696E67207370616365204E
:14074400697320746F6F206C6974746C652E00005468652036
:14075800686F6D652044495220796F75207370656369666965
:14076C00656420646F6573206E6F74206578697374000046E1
:14078000696C652068617320616C726561647920636C6F73FC
:1407940065642C206966206E65656420746F207573652C70A5
:1407A8006C65617365206F70656E20616761696E2E000054BF
:1407BC006865207370656369666965642070617468206973C7
:1407D000206F70656E65642E000054686520686F6D652044FE
:1407E400495220796F752073706563696669656420646F65C5
:1407F80073206E6F742065786973742C206D617962652074CE
:14080C0068652077726F6E672066696C65206E616D652E000F
:140820000074686520555342206D656D6F7279206F706572EA
:140834006174696F6E206661696C65642E000000C18140015F
:14084800C0804101C0804100C1814001C0804100C181400013
:14085C00C1814001C0804101C0804100C1814000C1814001FD
:14087000C0804100C1814001C0804101C0804100C1814001EA
:14088400C0804100C1814000C1814001C0804100C1814001D6
:14089800C0804101C0804100C1814000C1814001C0804101C2
:1408AC00C0804100C1814001C0804100C1814000C1814001AE
:1408C000C0804101C0804100C1814000C1814001C08041009B
:1408D400C1814001C0804101C0804100C1814000C181400185
:1408E800C0804101C0804100C1814001C0804100C181400073
:1408FC00C1814001C0804100C1814001C0804101C08041005E
:14091000C1814001C0804100C1814000C1814001C080410148
:14092400C0804100C1814000C1814001C0804100C181400135
:14093800C0804101C0804100C1814000C0C101C30302C2C654
:14094C000607C705C5C404CC0C0DCD0FCFCE0E0ACACB0BC952
:140960000908C8D81819D91BDBDA1A1EDEDF1FDD1D1CDC14DE
:14097400D4D515D71716D6D21213D311D1D010F03031F133D6
:14098800F3F23236F6F737F53534F43CFCFD3DFF3F3EFEFAB2
:14099C003A3BFB39F9F83828E8E929EB2B2AEAEE2E2FEF2DC2
:1409B000EDEC2CE42425E527E7E62622E2E323E12120E0A056
:1409C4006061A163A3A26266A6A767A56564A46CACAD6DAFA6
:1409D8006F6EAEAA6A6BAB69A9A86878B8B979BB7B7ABABEAA
:1409EC007E7FBF7DBDBC7CB47475B577B7B67672B2B373B122
:140A00007170B0509091519353529296565797559594549C7D
:140A14005C5D9D5F9F9E5E5A9A9B5B99595898884849894BC5
:140A28008B8A4A4E8E8F4F8D4D4C8C44848545874746868241
:140A3C004243834181804000000000000000FF00000000001D
:140A500000000000FF000000FF000000000000000000000094
:140A6400000031323133313431393132313331343139000052
:140A780000000000000000000000000000000000000000006A
:140A8C00000000000000000000000000000000000000000056
:140AA000000000000000000000000000000000000000000042
:140AB40000000000000000000000000000000000000000002E
:140AC80000000000000000000000000000000000000000001A
:140ADC00000000000000000000000000000000000000000006
:140AF0000000000000000000000000000000000000000000F2
:140B04000000000000000000000000000000000000000000DD
:140B18000000000000000000000000000000000000000000C9
:140B2C000000000000000000000000000000000000000000B5
:140B40000000000000000000000000000000000000000000A1
:140B540000000000000000000000000000000000000000008D
:140B6800000000000000000000000000000000000000000079
:140B7C00000000000000000000000000000000000000000065
:140B9000000000000000000000000000000000000000000051
:140BA40000000000000000000000000000000000000000003D
:140BB800000000000000000000000000000000000000000029
:140BCC00000000000000000000000000000000000000000015
:140BE000000000000000000000000000000000000000000001
:140BF4000000000000000000000000000000000000000000ED
:140C08000000000000000000000000000000000000000000D8
:140C1C000000000000000000000000000000000000000000C4
:140C30000000000000000000000000000000000000000000B0
:140C440000000000000000000000000000000000000000009C
:140C5800000000000000000000000000000000000000000088
:140C6C00000000000000000000000000000000000000000074
:140C8000000000000000000000000000000000000000000060
:140C940000000000000000000000000000000000000000004C
:140CA800000000000000000000000000000000000000000038
:140CBC00000000000000000000000000000000000000000024
:140CD000000000000000000000000000000000000000000010
:140CE40000000000FFFF0000FFFF0000000000000000000000
:140CF8000000000000000000000000000000000000000000E8
:140D0C0000000000000000000000000050617373776F726480
:070D2000204572726F2100F3
:140D2800CFEFD0E1CDBFDEBFC058D0400AEA08830024E4EE82
:140D3C00F3E018E0E83AF10711F00192FBCF0083E3E4FAE03C
:140D5000A0E0B1E01DE000E00BBFE732F10721F0C895319691
:140D64000D92F9CF0E94A631FFCF0E941945442755270BC01B
:140D78006627772702C06F5F7F4F6537E4E07E07D0F34F5F88
:140D8C005F4F4017510790F30C941E454A935A930E94C2380A
:140DA0000E94943D80919B08813011F40E942A4280919C089F
:140DB400813009F045C080919B08853009F03FC040914B08F7
:140DC800552740304507A9F04130E0E05E07B9F04230E0E0D5
:140DDC005E07C9F04330E0E05E07D9F04430E0E05E07E9F012
:140DF0004530E0E05E07F9F025C0D99ADA9ADB9ADC9ADD9A3E
:140E04001FC0D998DA9ADB9ADC9ADD9A19C0D99ADA98DB9A81
:140E1800DC9ADD9A13C0D99ADA9ADB98DC9ADD9A0DC0D99A7F
:140E2C00DA9ADB9ADC98DD9A07C0D99ADA9ADB9ADC9ADD98D0
:140E400001C031D320909C08222049F480919B08853029F480
:140E5400D99ADA9ADB9ADC9ADD9A5991499108950E942345D6
:140E6800A901580160E177E215C09B0185010E940944C8012A
:140E7C00C096FA0180839B0185010E94074458012AE030E08C
:140E90008B010E940944B8014F5F5F4F6030670741F7222442
:140EA400FA0120820C942A450E94E4430E9423452497AE84CE
:140EB800BF8480E4888382E489838FE08A8380E08B8340E8F0
:140ECC0056E968E970E00A851B852C853D857A936A935A9399
:140EE0004A930E9425440A871B872C873D8741C0288039800A
:140EF4004A805B800A851B852C853D855A924A923A922A9253
:140F08000E94234440E350E060E070E018012901240E351E21
:140F1C00461E571EF5012082288039804A805B800A851B851B
:140F30002C853D855A924A923A922A920E9425440A871B87AC
:140F44002C873D874AE050E060E070E0088119812A813B81AE
:140F58007A936A935A934A930E942344088319832A833B8316
:140F6C00C50101965C01288039804A805B808894222032041D
:140F80004204520409F0B4CF2224F501208224960E942A459C
:140F940024960895AA92BA922C9780911401853109F0B9C059
:140FA800809105018C3358F480911001813009F040C0809136
:140FBC0005018F5F809305013AC022242092050181E090E04B
:140FD000A0E0B0E04090D5075090D6072090D3073090D4076F
:140FE400280E391E4A1E5B1E3092D4072092D3075092D607A3
:140FF8004092D50720909303222051F48091D1079091D20787
:14100C0001969093D2078093D10711C020909B0330909C03D4
:14102000222011F4332049F0C101019790939C0380939B031C
:1410340081E08093960320909303222041F42AEE33E0009122
:14104800D1071091D2070ADF49C02AEE33E000919B03109155
:14105C009C0302DF20909B0330909C03222009F03BC03320CA
:1410700009F038C080E020901001821508F032C08091650063
:1410840080618093650080916500886080936500EEEBF5E07B
:14109800279036903B862A86ECEBF5E02790369039862886C0
:1410AC00E2ECF5E0279036903F822E82E0ECF5E02790369081
:1410C0003D822C82EEEBF5E0279036903B822A82ECEBF5E06F
:1410D40027903690398228822CE100270E94143F80911801D3
:1410E8008130B9F48AEE93E09B878A878BED9EED9987888746
:1410FC00222433243F822E8282E08C8381EC8A8328822CE031
:1411100030E008E012E00E94083F2C96B990A990089508957A
:141124000E940445A22EE02E2C9704E61A2D0103A00180EEE7
:1411380097E0EE2DFF27E80FF91F10810103B00113E00E2D68
:14114C000E948F4481E9809FC0014E965C0113E00E2D0E94BF
:141160008D448FEA809FC0018F5B9F4F6C01DB86CA86B9861C
:14117400A886CB018D599F4F9F838E83CA018D599F4F9D83A7
:141188008C837B836A83598348832AE001E00E94143F80EE64
:14119C0097E0EE2DFF27E80FF91F008115E00E948D4482E825
:1411B000809FA0011091220105E20103B00113E00E2D0E943B
:1411C4008F4481E9809FC0010F965C0113E00E2D0E948D4457
:1411D8008FEA809FC00181559F4F6C01DB86CA86B986A8865B
:1411EC00CB0184969F838E83CA018E579F4F9D838C837B830B
:141200006A83598348832BE001E00E94143F2C960C94F944C6
:141214004A935A932C97009116010E94133F4427552705C0F1
:141228002227042F7BDF4F5F5F4F20901A01332442155305AF
:14123C00A8F380EF90E09B878A878FEA9987888783EF91E066
:141250009F838E8383E690E09D838C8380E991E09B838A834A
:141264002224398228822AE001E00E94143F80912101813007
:1412780089F48AE090E09D838C838CEB92E09B838A83222482
:14128C0033243982288223E0009121010E94423F2C9659910D
:1412A000499108950E942345A02E2C9702E310E09A010E9416
:1412B400A544A801BA016F5C7F4FBB2400E710E095010E9452
:1412C800A5445801C5018C965C0182E390E09B878A87B98644
:1412DC00A88681E291E09F838E837D836C83222433243B8280
:1412F0002A825983488320E200270E94143F2C960C942A45A8
:1413040088B38C6388BB1091BB0304E00E948845202E2094B4
:1413180038B2322038BA85B3806F85BB1091BB0300E10E944A
:14132C008845202E209435B2322035BA0895299783B18C6732
:1413400083B92090BA03222091F483B18B7C83B9002708C0C3
:14135400CE01E02FFF27E80FF91F2224208203950830B0F317
:1413680081E0898341C08091BA03813091F483B1877983B98F
:14137C00002708C0CE01E02FFF27E80FF91F222420820395DB
:141390000830B0F381E08B832BC08091BA03823091F483B1DB
:1413A4008B7983B9002708C0CE01E02FFF27E80FF91F2224AD
:1413B800208203950830B0F381E08D8315C08091BA03833045
:1413CC0089F483B1877C83B9002708C0CE01E02FFF27E80F33
:1413E000F91F2224208203950830B0F381E08F8329960895B7
:1413F40085B38F6085BB0091B70311270030010749F1013058
:14140800E0E01E0749F10230E0E01E0749F10330E0E01E0748
:14141C0049F10430E0E01E0749F10530E0E01E0749F10630A5
:14143000E0E01E0749F10730E0E01E0739F10830E0E01E0726
:1414440039F10930E0E01E0729F10A30E0E01E0719F125C024
:1414580085B3807F85BB21C085B3837F85BB1DC085B3867F94
:14146C0085BB19C085B3887F85BB15C085B3897F85BB11C0AE
:1414800085B38A7F85BB0DC0AA980BC085B38C7F85BB07C0B3
:14149400A99805C0A89803C085B38F7F85BB089508952EDF6E
:1414A800A5CF0895AA92AA2428C04090E8035090E903F801AD
:1414BC002790369024143504D8F4F8013496279036904214CC
:1414D0005304A0F44090E6035090E703F8013296279036905C
:1414E4002414350448F4F8013696279036904214530410F454
:1414F8000A2D07C0085F1F4FA394A21608F4D5CF0FEFA99047
:14150C0008952C9720901401222009F05AC026E004E511E071
:14152000C5DF0093150120901A01302E021538F421E0F8DD28
:141534002090150120921B0148C0809115018430D9F482E3FA
:1415480090E09B878A8722243324398628868FE391E09F83DD
:14155C008E8387EC90E09D838C833B822A82398228822DE07D
:1415700000270E94143F0E94413F29C0809115018530E1F48F
:1415840080EF90E09B878A878FEA9987888783EF91E09F8394
:141598008E8387EC90E09D838C8380E991E09B838A8384E6AD
:1415AC0090E0998388832AE001E00E94143F09C020901A0120
:1415C000222029F422242092150120921B012C960895AA9241
:1415D400BA922C9720901401222009F05FC020901A0130904A
:1415E8001501321438F485E18093140158DF0E94334339C091
:1415FC0080911501843021F481E08093140131C0809115014A
:14161000853019F587E1809314010CE60E94133F8AEA90E0A9
:141624009B878A8784EA91E09987888787E592E09F838E8360
:141638008CE390E09D838C838EEF91E09B838A8322243324DA
:14164C00398228822DE601E00E94143F0AC020901A01222065
:1416600031F485E1809314011EDF0E943343809115018F3FB9
:1416740049F4809106018F5F282E20920601A82EBB2402C099
:14168800AA24BB24A09206018A2D8A3028F0222420920601E0
:14169C000E94113F2C96B990A99008950E9423452C97809189
:1416B0001401813009F064C329E004E811E0F6DE00931501DD
:1416C400802F0830E8F4182F08E20103C001C2969B878A87CE
:1416D8002224332439862886C00188969F838E8380E991E008
:1416EC009D838C831B820A8289EC90E0998388832DE0002752
:141700000E94143F20901501222009F0BCC082E080931401D9
:1417140084E690E09B878A878CE291E0998788878AE49F8316
:141728008E838DE09D838C83222433243B822A823982288295
:14173C002EE000270E94143F22242092AB038091AC038295F2
:141750008F70805D8093FE038091AC038F70805D8093FF03E4
:141764008DE2809300048091AD0382958F70805D809301041F
:141778008091AD038F70805D809302048DE28093030480910D
:14178C00AE0382958F70805D809304048091AE038F70805DEC
:1417A0008093050480E2809306048091B00382958F70805DE3
:1417B400809307048091B0038F70805D809308048AE38093C4
:1417C80009048091B10382958F70805D80930A048091B10362
:1417DC008F70805D80930B048AE380930C048091B20382958E
:1417F0008F70805D80930D048091B2038F70805D80930E041E
:1418040020920F048EEF93E0E22DFF27E80FF91F2080209285
:1418180010042224209211049B878A878FEF9FEF998788872D
:14182C008BEB94E09F838E8382E08C8381ED8A8328822CE9E0
:1418400030E00FE411E00E94083F80E194E09B878A878BEB39
:1418540094E0998788878FEF9FEF9F838E8382E08C8381EDBF
:141868008A83222428822CE930E01091AB030CE0010380018A
:14187C00015B1E4F0E94083F7DC280911501823009F043C092
:1418900084E08093140188EC90E09B878A878CE291E09987A2
:1418A400888783E192E09F838E8388E691E09D838C838BE49B
:1418B8009B838A8385EB90E0998388832EE000270E94143FC0
:1418CC0080EF90E09B878A878DE291E09987888720901F0117
:1418E0008AE0382E32188FE0839DC0018D589E4F9F838E8385
:1418F4008AEA90E09D838C8383E791E09B838A8381E090E0F6
:14190800998388832EE000270E94143F35C2809115018330A9
:14191C0009F061C085E08093140184E690E09B878A878CE295
:1419300091E09987888780E99F838E8386E79D838C83222485
:1419440033243B822A82398228822FE000270E94143FA0900F
:141958002201BB24AA0CBB1CAA0CBB1CAA0CBB1C8EE492E0EE
:14196C00F501E80FF91F279036903B862A868CE492E0F5019C
:14198000E80FF91F479156915987488782E592E0F501E80F10
:14199400F91F87919691845690409F838E8380E592E0F5013E
:1419A800E80FF91F87919691855B9F4F9D838C838EE492E0FC
:1419BC00F501E80FF91F87919691845690409B838A83CA0133
:1419D000855B9F4F998388832FE000270E94143FCFC1809142
:1419E4001501843009F03DC086E08093140188EC90E09B879B
:1419F8008A878CE291E099878887A090160126E030E00A2D28
:141A0C0011270E94E94323E030E00E94ED438EE091E0980163
:141A20008C010E94A544B801CB01835F9E4F9F838E8313E020
:141A34000A2D0E948D4481EF809FA001CA0181519F4F9D8319
:141A48008C837B836A835983488316E00A2D0E948F44202FF8
:141A5C00205F00270E94143F8DC1809115018530E9F487E06D
:141A70008093140188EC90E09B878A878CE291E09987888715
:141A840086EA9F838E838DE09D838C838AE19B838A83222433
:141A98003324398228822AE100270E94143F6CC18091150103
:141AAC00863009F000C181E020909903821508F0E1C088E071
:141AC000809314018FEF8093AB0384E690E09B878A878CE230
:141AD40091E09987888781E79F838E838DE09D838C832224E1
:141AE80033243B822A823982288222E100270E94143F14E6AC
:141AFC00009198030E948F44802F805D8093FE0314E600910A
:141B100098030E948D441AE00E948F44802F805D8093FF03A3
:141B24001AE0009198030E948D44802F805D8093000422242B
:141B3800209201048EEF93E09B878A878FEF9FEF9987888784
:141B4C008BEB94E09F838E8382E08C8381ED8A83288228E9C1
:141B600030E007E511E00E94083F222420929A03122D06E0E1
:141B7400010310018CE391E0280E391E3B862A868FEF9FEF5E
:141B8800998788878BEB94E09F838E8382E08C8381E88A8316
:141B9C002224288228E930E006E911E00E94093F80E197E280
:141BB00090939E0380939D0320E137E28C010E940944C8014B
:141BC400C0968093020420E137E200919D0310919E030E946F
:141BD800074428EE33E00E940944C801C0968093030428EE47
:141BEC0033E000919D0310919E030E94074424E630E00E94B6
:141C00000944C801C0968093040424E630E000919D0310915D
:141C14009E030E9407442AE030E00E940944C801C0968093F3
:141C280005042AE030E000919D0310919E030E940744C8015C
:141C3C00C096809306042224209207042092080420920904A1
:141C500082E094E09B878A878FEF9FEF998788878BEB94E052
:141C64009F838E8382E08C8381ED8A83288228E930E002EE92
:141C780011E00E94083F80C082E390E09B878A872224332499
:141C8C00398628868FE391E09F838E8387EC90E09D838C83AF
:141CA0003B822A82398228822DE000270E94143F67C0809101
:141CB4001501873009F05DC089E0809314012090E907821571
:141CC800A0F02090EA07821580F02090EB07821560F0209097
:141CDC00EC07821540F02090ED07821520F02090EE078215B3
:141CF00068F486E08093E9078093EA078093EB078093EC070C
:141D04008093ED078093EE0784E690E09B878A878CE291E0D0
:141D18009987888785E49F838E838DE09D838C8322243324B3
:141D2C003B822A82398228822BE100270E94143F22242092B5
:141D4000AB0380E28093FE038093FF03809300048093010427
:141D54008093020480930304209204048AE280930504209254
:141D6800060480E2809307042092080405C08091150188307B
:141D7C0009F44ADA2C960C942A4580911401813009F022C0AF
:141D9000809115018130B9F40E94113F80913401843EE1F7E8
:141DA400809135018F34C1F7809136018B34A1F704E610E0F0
:141DB8000E94842F2BDA22242092140107C08091150188300A
:141DCC0019F422242092140108950E940F452C97809114016D
:141DE000823009F015C22DE00CEC11E05FDB009315010A305A
:141DF40008F0D1C08091AB03833021F481E0801708F404C211
:141E08008091AB03843051F480910104813331F482E020900D
:141E1C001501821508F4F6C18091AB03863031F483E02090A5
:141E30001501821508F4ECC18091AB03873051F48091040474
:141E4400833331F481E020901501821508F4DEC18091AB0397
:141E5800893031F482E020901501821508F4D4C18091AB0389
:141E6C008A3051F480910704823331F483E0209015018215AD
:141E800008F4C6C18091AB038C3031F485E020901501821569
:141E940008F4BCC18091AB038F3031F485E02090150182155C
:141EA80008F4B2C1209015013324220C331C220C331C220C72
:141EBC00331C21018EEC91E0F101E80FF91F279036903B8677
:141ED0002A868CEC91E0F201E80FF91F4791569159874887F5
:141EE40082ED91E0F201E80FF91F87919691845690409F83FD
:141EF8008E8380ED91E0F201E80FF91F879196914C979D83A3
:141F0C008C838EEC91E0F201E80FF91F8791969184569040DC
:141F20009B838A83CA014C97998388832EE000270E94143F83
:141F34008EEF93E0E091AB03FF27E80FF91F80911501805D51
:141F480080838EEF93E0E091AB03FF27E80FF91F20802092EC
:141F5C00100480E194E09B878A878BEB94E0998788878FEFBE
:141F70009FEF9F838E8382E08C8381ED8A83222428822CE9AB
:141F840030E01091AB030CE001038001015B1E4F0E94083FC7
:141F98003BC1809115018A3009F09CC0A82EBB24AA0CBB1CC1
:141FAC00AA0CBB1CAA0CBB1C8EEC91E0F501E80FF91F279060
:141FC00036903B862A868CEC91E0F501E80FF91F4791569129
:141FD4005987488782ED91E0F501E80FF91F8791969184564C
:141FE80090409F838E8380ED91E0F501E80FF91F87919691C0
:141FFC004C979D838C838EEC91E0F501E80FF91F8791969190
:14201000845690409B838A83CA014C97998388832EE00027DD
:142024000E94143F8091AB03803120F48F5F8093AB0303C0BD
:1420380022242092AB034091AB03423041F0453031F04830BE
:14204C0021F04B3011F04E3029F48091AB038F5F8093AB03EA
:142060008EEF93E0E091AB03FF27E80FF91F208020921004C2
:142074009B878A878FEF9FEF998788878BEB94E09F838E83CD
:1420880082E08C8381ED8A83222428822CE930E00FE411E05F
:14209C000E94083F80E194E09B878A878BEB94E09987888726
:1420B0008FEF9FEF9F838E8382E08C8381ED8A832224288201
:1420C4002CE930E01091AB030CE001038001015B1E4F0E94B8
:1420D800083F9AC0809115018B3009F095C0A82EBB24AA0CB8
:1420EC00BB1CAA0CBB1CAA0CBB1C8EEC91E0F501E80FF91FFF
:14210000279036903B862A868CEC91E0F501E80FF91F479117
:1421140056915987488782ED91E0F501E80FF91F87919691FD
:14212800845690409F838E8380ED91E0F501E80FF91F8791CB
:14213C0096914C979D838C838EEC91E0F501E80FF91F87914E
:142150009691845690409B838A83CA014C97998388832EE09C
:1421640000270E94143F8091FF0380539091FE0390539F7051
:142178009295982B9093AC03809102048053909101049053A4
:14218C009F709295982B9093AD03809105048053909104045D
:1421A00090539F709295982B9093AE0380910804805390916A
:1421B400070490539F709295982B9093B00380910B04805367
:1421C80090910A0490539F709295982B9093B10380910E04FE
:1421DC00805390910D0490539F709295982B9093B203292EDF
:1421F0002E822090B1032C822090B0032A822090AE032882FF
:142204002091AD030091AC030E94433F2C960C9414452C9783
:1422180080911401823009F011C1809115018C30D0F48EEBEF
:14222C0090E09B878A878CE291E0998788878AE49F838E834C
:142240008DE09D838C838AE590E09B838A832224332439828C
:1422540028822EE000270E94143F809115018A3008F0DBC02E
:142268008091AB03833031F481E020901501821508F4E4C06D
:14227C008091AB03843051F480910104813331F482E0209095
:142290001501821508F4D6C08091AB03863031F483E020904E
:1422A4001501821508F4CCC08091AB03873051F4809104041D
:1422B800833331F481E020901501821508F4BEC08091AB0340
:1422CC00893031F482E020901501821508F4B4C08091AB0332
:1422E0008A3051F480910704823331F483E020901501821535
:1422F40008F4A6C08091AB038C3031F485E020901501821512
:1423080008F49CC08091AB038F3031F485E020901501821504
:14231C0008F492C080910104813341F482E3209002048215AE
:1423300018F480E38093020480910404833341F481E32090F9
:142344000504821518F480E38093050480910704823341F454
:1423580083E320900804821518F480E3809308048091AB036B
:14236C00803120F48F5F8093AB0303C022242092AB032090D0
:14238000AB03822D823041F0853031F0883021F08B3011F0AE
:142394008E3029F48091AB038F5F8093AB038EEF93E0E0918B
:1423A800AB03FF27E80FF91F2080209210049B878A878FEF27
:1423BC009FEF998788878BEB94E09F838E8382E08C8381ED54
:1423D0008A83222428822CE930E00FE411E00E94083F80E1A9
:1423E40094E09B878A878BEB94E0998788878FEF9FEF9F83F7
:1423F8008E8382E08C8381ED8A83222428822CE930E010911E
:14240C00AB030CE001038001015B1E4F0E94083F13C0809107
:1424200015018B3031F40E940A0922242092140109C0809116
:1424340015018C3029F40E940A092224209214012C96089584
:142448002C9780911401843009F088C023E004E312E028D8C6
:14245C0000931501002309F47FC0809115018130F9F4222459
:1424700020921F0188EC90E09B878A878CE291E09987888761
:1424840083E192E09F838E8383EB90E09D838C838BE491E04E
:142498009B838A833324398228822EE000270E94143F5CC003
:1424AC0080911501823009F057C088EC90E09B878A878CE2AE
:1424C00091E09987888783E192E09F838E8388E691E09D8360
:1424D4008C838BE49B838A8385EB90E0998388832EE000270F
:1424E8000E94143F80EF90E09B878A878DE291E099878887CA
:1424FC002FE030E00091E6031091E703005F10400E9409440A
:1425100098010FE010E00E94A544C8018D589E4F9F838E83E6
:142524008AEA90E09D838C8383E791E09B838A8381E090E0B9
:14253800998388832EE000270E94143F2FE030E00091E603A5
:14254C001091E703005F10400E9409448AE090E0801B910B41
:1425600080931F012C96089580911401843009F009C0209089
:142574001501222029F40E940A0922242092140108954A93A2
:142588005A932C9780911401853009F071C021E10CE412E0A6
:14259C000E94560A00931501802F003108F062C0282E20927E
:1425B000220184E690E09B878A878CE291E09987888780E970
:1425C4009F838E8386E79D838C83222433243B822A82398273
:1425D80028822FE000270E94143F209015013324220C331C80
:1425EC00220C331C220C331C21018EE492E0F101E80FF91FDA
:14260000279036903B862A868CE492E0F201E80FF91F47911C
:1426140056915987488782E592E0F201E80FF91F8791969102
:14262800845690409F838E8380E592E0F201E80FF91F8791D0
:14263C009691855B9F4F9D838C838EE492E0F201E80FF91F80
:1426500087919691845690409B838A83CA01855B9F4F9983AD
:1426640088832FE000270E94143F04C080911501803101F49B
:142678002C9659914991089580911401853009F007C080917F
:14268C001501803119F422242092140108950E9423452C97EF
:1426A00080911401863009F094C024E004ED12E00E94560A14
:1426B40000931501002309F044C080E020901601821508F093
:1426C8003EC0822D81508093160188EC90E09B878A878CE2D1
:1426DC0091E0998788872090160126E030E0022D11270E9464
:1426F000E94323E030E00E94ED438EE091E098018C010E941E
:14270400A544B801CB01835F9E4F9F838E8313E0022D0E948D
:142718008D4481EF809FA001CA0181519F4F9D838C837B83F4
:14272C006A835983488316E0022D0E948F44202F205F002776
:142740000E94143F46C080911501813009F041C08091160190
:14275400893008F03CC08F5F8093160188EC90E09B878A8795
:142768008CE291E099878887A090160126E030E00A2D112783
:14277C000E94E94323E030E00E94ED438EE091E098018C0191
:142790000E94A544B801CB01835F9E4F9F838E8313E00A2DF9
:1427A4000E948D4481EF809FA001CA0181519F4F9D838C83C4
:1427B8007B836A835983488316E00A2D0E948F44202F205F0B
:1427CC0000270E94143F2C960C942A4580911401863009F037
:1427E00013C080911501823031F40E940A0922242092140152
:1427F40009C080911501833029F40E940A092224209214014F
:1428080008952C9780911401873009F037C023E004EF12E0A7
:14281C000E94560A00931501002309F02DC0E6EFF2E0279096
:1428300036903B862A86E4EFF2E02790369039862886EAEFF5
:14284400F2E08791969181529F4F9F838E83E8EFF2E08791BA
:1428580096918C5291409D838C83E6EFF2E0879196918152AE
:14286C009F4F9B838A83C1018C529140998388832AE1002775
:142880000E94143F2C9608952C9780911401873009F047C050
:1428940020901501222009F039C0E6EFF2E0279036903B8651
:1428A8002A86E4EFF2E02790369039862886EAEFF2E087911A
:1428BC0096918E5A9F4F9F838E83E8EFF2E0879196918C5212
:1428D00091409D838C83E6EFF2E0879196918E5A9F4F9B831A
:1428E4008A83C1018C529140998388832AE100270E94143F14
:1428F8000E94EB4008EE13E00E94842F0E940A092224209214
:14290C00140109C080911501823029F40E940A092224209236
:1429200014012C9608954A935A932C9780911401883009F0CB
:1429340036C320E10CE013E00E94560A00931501802F0F301D
:1429480008F043C0282E3324220C331C220C331C220C331C5C
:14295C0021018EE093E0F101E80FF91F279036903B862A8675
:142970008CE093E0F201E80FF91F479156915987488782E1A1
:1429840093E0F201E80FF91F87919691845690409F838E83AE
:1429980080E193E0F201E80FF91F879196914D979D838C8303
:1429AC008EE093E0F201E80FF91F87919691845690409B832D
:1429C0008A83CA014D979983888322E100270E94143F8091F0
:1429D40015018A3008F05CC08091AB03893008F057C08EEF07
:1429E80093E0E091AB03FF27E80FF91F80911501805D80830D
:1429FC008EEF93E0E091AB03FF27E80FF91F20802092080425
:142A10008091AB038330F0F488E094E09B878A878BEB94E063
:142A2400998788878FEF9FEF9F838E8382E08C8381ED8A8344
:142A38002224288228E930E01091AB030CE001038001095A56
:142A4C001E4F0E94083FA7C288E094E09B878A878BEB94E0BE
:142A6000998788878FEF9FEF9F838E8382E08C8381ED8A8308
:142A74002224288228E930E01091AB030CE00103800100532A
:142A880010400E511E4F0E94083F87C2809115018A3009F012
:142A9C009DC08091AB03893008F098C08EEF93E09B878A87DE
:142AB0008FEF9FEF998788878BEB94E09F838E8382E08C8349
:142AC40081ED8A832224288228E930E007E511E00E94083FAC
:142AD80082E094E09B878A878FEF9FEF998788878BEB94E0BC
:142AEC009F838E8382E08C8381ED8A832224288228E930E0A6
:142B000002EE11E00E94083F8091AB03833088F580E02090F8
:142B1400AB03821520F4822D81508093AB038EEF93E0E091B2
:142B2800AB03FF27E80FF91F20802092080488E094E09B875A
:142B3C008A878BEB94E0998788878FEF9FEF9F838E8382E0BA
:142B50008C8381ED8A832224288228E930E01091AB030CE09B
:142B640001038001095A1E4F0E94083F18C284E02090AB0383
:142B7800821520F4822D81508093AB038EEF93E0E091AB034E
:142B8C00FF27E80FF91F20802092080488E094E09B878A8793
:142BA0008BEB94E0998788878FEF9FEF9F838E8382E08C8358
:142BB40081ED8A832224288228E930E01091AB030CE0010342
:142BC8008001005310400E511E4F0E94083FE5C18091150153
:142BDC008B3009F0C3C08091AB038330E0F41091FF030AE0DB
:142BF0000103C001805E91401091FE0304E60103F001E05CA0
:142C0400F241E80FF91F809100049927C097E80FF91FE093CC
:142C180098032E2E2092A0036FC020910304332708EE13E032
:142C2C000E94A544C80180589B4B20910204332700E117E297
:142C40000E94A544F801E050F3451F01280E391E109104043E
:142C540004E60103C001805C9241280E391E109105040AE0ED
:142C68000103C001805E9140280E391E809106049927C09725
:142C7C00280E391E30929E0320929D0380E020909A038215BE
:142C9000E8F440919903241618F4443008F481C120909A03A2
:142CA40020929F03209098032092A00320909D0330909E0377
:142CB8002092A103232C33242092A20382E0809396031AC0CD
:142CCC004091990381E08417A8F4443098F4242E20929F0349
:142CE000209098032092A00320909D0330909E032092A10339
:142CF400232C33242092A203809396038FEF8093AB038EEF67
:142D080093E09B878A878FEF9FEF998788878BEB94E09F83CA
:142D1C008E8382E08C8381ED8A832224288228E930E007E5A9
:142D300011E00E94083F82E094E09B878A878FEF9FEF998780
:142D440088878BEB94E09F838E8382E08C8381ED8A8322241D
:142D5800288228E930E002EE11E00E94083F1DC180911501CD
:142D6C008C3009F066C080919903833009F013C18091AB038C
:142D8000823020F48F5F8093AB0303C022242092AB038EEFE4
:142D940093E0E091AB03FF27E80FF91F2080209208049B87E4
:142DA8008A878FEF9FEF998788878BEB94E09F838E8382E04C
:142DBC008C8381ED8A832224288228E930E007E511E00E94E9
:142DD000083F88E094E09B878A878BEB94E0998788878FEF02
:142DE4009FEF9F838E8382E08C8381ED8A832224288228E92D
:142DF80030E01091AB030CE001038001095A1E4F0E94083F3E
:142E0C0082E094E09B878A878FEF9FEF998788878BEB94E084
:142E20009F838E8382E08C8381ED8A832224288228E930E06E
:142E340002EE11E00E94083FB2C0809115018D3009F03FC072
:142E480080919903833061F480919A03833020F48F5F80934B
:142E5C009A0313C0222420929A030FC080919903823059F4E2
:142E700080919A03813020F48F5F80939A0303C02224209282
:142E84009A0310919A0306E0010310018CE391E0280E391EF7
:142E98003B862A868FEF9FEF998788878BEB94E09F838E835D
:142EAC0082E08C8381EC8A832224288228E930E006E911E036
:142EC0000E94093F6EC0809115018E3009F069C08091AB0320
:142ED400883020F48F5F8093AB0303C084E08093AB03809176
:142EE800AB03843018F484E08093AB038EEF93E0E091AB0334
:142EFC00FF27E80FF91F2080209208049B878A878FEF9FEFF0
:142F1000998788878BEB94E09F838E8382E08C8381ED8A8375
:142F24002224288228E930E007E511E00E94083F82E094E0EC
:142F38009B878A878FEF9FEF998788878BEB94E09F838E83FA
:142F4C0082E08C8381ED8A832224288228E930E002EE11E093
:142F60000E94083F88E094E09B878A878BEB94E0998788874C
:142F74008FEF9FEF9F838E8382E08C8381ED8A83222428822E
:142F880028E930E01091AB030CE001038001005310400E5152
:142F9C001E4F0E94083F2C965991499108952C9780911401BF
:142FB000883009F0F7C0809115018F3008F045C0282E332415
:142FC400220C331C220C331C220C331C21018EE093E0F1018D
:142FD800E80FF91F279036903B862A868CE093E0F201E80F1F
:142FEC00F91F279036903986288682E193E0F201E80FF91FF7
:1430000087919691845690409F838E8380E193E0F201E80FE2
:14301400F91F879196918C5291409D838C838EE093E0F2019F
:14302800E80FF91F87919691845690409B838A83C1018C52D1
:14303C0091409983888322E100270E94143F809115018A3088
:1430500008F09FC08091AB03893008F09AC08EEF93E09B8739
:143064008A878FEF9FEF998788878BEB94E09F838E8382E08D
:143078008C8381ED8A832224288228E930E007E511E00E942A
:14308C00083F82E094E09B878A878FEF9FEF998788878BEB2F
:1430A00094E09F838E8382E08C8381ED8A832224288228E988
:1430B40030E002EE11E00E94083F8091AB03833088F582308D
:1430C80020F48F5F8093AB0303C022242092AB038EEF93E0D8
:1430DC00E091AB03FF27E80FF91F20802092080488E094E052
:1430F0009B878A878BEB94E0998788878FEF9FEF9F838E8341
:1431040082E08C8381ED8A832224288228E930E01091AB036B
:143118000CE001038001095A1E4F0E94083F3EC08091AB03BC
:14312C00883020F48F5F8093AB0303C084E08093AB038EEFAF
:1431400093E0E091AB03FF27E80FF91F20802092080488E0EE
:1431540094E09B878A878BEB94E0998788878FEF9FEF9F8379
:143168008E8382E08C8381ED8A832224288228E930E01091A4
:14317C00AB030CE001038001005310400E511E4F0E94083FC8
:1431900009C0809115018F3029F40E940A092224209214019D
:1431A4002C9608950E940F452C9780911401893009F038C22D
:1431B8002DE00CEC11E00E94560A009315010A3008F075C0FB
:1431CC008091AB03863008F070C0202E3324220C331C220C02
:1431E000331C220C331C21018EEC91E0F101E80FF91F27904A
:1431F40036903B862A868CEC91E0F201E80FF91F47915691E6
:143208005987488782ED91E0F201E80FF91F87919691845608
:14321C0090409F838E8380ED91E0F201E80FF91F879196917C
:143230004D979D838C838EEC91E0F201E80FF91F879196914B
:14324400845690409B838A83CA014D97998388832BE1002798
:143258000E94143F85E094E09B878A878FEF9FEF9987888726
:14326C008BEB94E09F838E8382E08C8381ED8A832224288255
:1432800026E930E01091AB030CE001038001015B1E4F0E94F0
:14329400083F8EEF93E0E091AB03FF27E80FF91F20901501D5
:1432A80020828091AB038F5F8093AB03B9C1809115018A30A7
:1432BC0009F074C080E02090AB03821508F06EC0A090150110
:1432D000BB24AA0CBB1CAA0CBB1CAA0CBB1C8EEC91E0F50183
:1432E400E80FF91F279036903B862A868CEC91E0F501E80F03
:1432F800F91F479156915987488782ED91E0F501E80FF91F57
:14330C0087919691845690409F838E8380ED91E0F501E80FC6
:14332000F91F879196914D979D838C838EEC91E0F501E80F57
:14333400F91F87919691845690409B838A83CA014D9799838E
:1433480088832BE100270E94143F8091AB0381508093AB03ED
:14335C008EEF93E0E091AB03FF27E80FF91F2224208287E0CA
:1433700094E09B878A878FEF9FEF998788878BEB94E09F835B
:143384008E8382E08C8381ED8A83288226E930E01091AB0320
:143398000CE001038001015B1E4F0E94083F40C180911501D6
:1433AC008B3009F0F4C08091AB03863009F0EFC0A090150142
:1433C000BB24AA0CBB1CAA0CBB1CAA0CBB1C8EEC91E0F50192
:1433D400E80FF91F279036903B862A868CEC91E0F501E80F12
:1433E800F91F479156915987488782ED91E0F501E80FF91F66
:1433FC0087919691845690409F838E8380ED91E0F501E80FD6
:14341000F91F879196914D979D838C838EEC91E0F501E80F66
:14342400F91F87919691845690409B838A83CA014D9799839D
:1434380088832BE100270E94143F2090E9073090FE033214A6
:14344C0011F52090EA073090FF033214E1F42090EB07309086
:1434600000043214B1F42090EC0730900104321481F4209096
:14347400ED0730900204321451F42090EE073090030432144D
:1434880021F488E08093AB03CBC08091FE03813009F053C098
:14349C008091FF03813009F04EC080910004813009F049C089
:1434B00020900104222009F044C020900204222009F03FC024
:1434C400809103048130D9F581E08093E90782E08093EA0793
:1434D80022242092EB0781E08093EC072092ED078093EE07E1
:1434EC002092AB0380E28093FE038093FF03809300048093B7
:14350000010480930204809303048EEF93E09B878A878FEFDE
:143514009FEF998788878BEB94E09F838E8382E08C8381EDEA
:143528008A83288226E930E0122D0CE001038001015B1E4F40
:14353C000E94083F73C022242092AB0380E28093FE03809330
:14355000FF03809300048093010480930204809303048EEF86
:1435640093E09B878A878FEF9FEF998788878BEB94E09F8366
:143578008E8382E08C8381ED8A83288226E930E0122D0CE04E
:14358C0001038001015B1E4F0E94083F47C0809115018C300A
:1435A00009F042C0A82EBB24AA0CBB1CAA0CBB1CAA0CBB1CC0
:1435B4008EEC91E0F501E80FF91F279036903B862A868CECAD
:1435C80091E0F501E80FF91F479156915987488782ED91E02B
:1435DC00F501E80FF91F87919691845690409F838E8380ED4D
:1435F00091E0F501E80FF91F879196914D979D838C838EEC85
:1436040091E0F501E80FF91F87919691845690409B838A8328
:14361800CA014D97998388832BE100270E94143F2C960C943E
:14362C0014452C9780911401893009F03AC0809115018C30B9
:14364000D0F48EEB90E09B878A878CE291E09987888785E41F
:143654009F838E838DE09D838C838AE590E09B838A83222443
:143668003324398228822BE100270E94143F809115018B3088
:14367C0079F48091AB03883059F40E94403F03E10E94133F10
:143690000E94F42D8AE08093140109C0809115018C3029F408
:1436A4000E940A092224209214012C9608950E9406452C9741
:1436B800809114018A3009F014C42AE00CE813E00E94560A5A
:1436CC0000931501202E002309F07DC03324220C331C220C98
:1436E000331C220C331C21018EE893E0F101E80FF91F279047
:1436F40036903B862A868CE893E0F201E80FF91FA790B69025
:14370800B986A88682E993E0F201E80FF91F279036903F8222
:14371C002E8280E993E0F201E80FF91F279036903D822C8221
:143730008EE893E0F201E80FF91F279036903B822A82B98279
:14374400A88224E100270E94143F84E690E09B878A878CE2AB
:1437580091E0998788878BE29F838E838DE09D838C8322243B
:14376C0033243B822A823982288225E100270E94143F8EEF85
:1437800093E0998388832091D5073091D6070091D307109164
:14379400D4070E9456078EEF93E09B878A878FEF9FEF9987F8
:1437A80088878BEB94E09F838E8382E08C8381ED8A832224AF
:1437BC00288224E031E004E511E00E94083F8BE080931401E4
:1437D0008CC380911501813009F0B2C0C82EDD24CC0CDD1C8B
:1437E400CC0CDD1CCC0CDD1C8EE893E0F601E80FF91F279089
:1437F80036903B862A868CE893E0F601E80FF91FA790B6901C
:14380C00B986A88682E993E0F601E80FF91F279036903F8219
:143820002E8280E993E0F601E80FF91F279036903D822C8218
:143834008EE893E0F601E80FF91F279036903B822A82B98270
:14384800A88224E100270E94143F80E590E09B878A878CE2AB
:14385C0091E09987888781EC9F838E838FE89D838C8322242C
:1438700033243B822A823982288226E100270E94143F442791
:1438840056C0E42EFF24EE0CFF1CEE0CFF1CEE0CFF1C8EEE2A
:1438980093E0F701E80FF91F279036903B862A868CEE93E0C7
:1438AC00F701E80FF91FC790D690D986C88682EF93E0F701BB
:1438C000E80FF91F87919691805590409F838E8387ED97E0E3
:1438D400E42FFF27E80FF91F2081332700E911E00E94A54438
:1438E800580180EF93E0F701E80FF91F87919691800F911F0C
:1438FC008C5291409D838C838EEE93E0F701E80FF91F8791CC
:143910009691805590409B838A83C601800F911F8C529140F7
:143924009983888326E100270E94143F4395443008F4A7CF87
:143938008CE080931401D5C280911501823009F0D5C0C82EF3
:14394C00DD24CC0CDD1CCC0CDD1CCC0CDD1C8EE893E0F60113
:14396000E80FF91F279036903B862A868CE893E0F601E80F81
:14397400F91FA790B690B986A88682E993E0F601E80FF91F59
:14398800279036903F822E8280E993E0F601E80FF91F2790A4
:14399C0036903D822C828EE893E0F601E80FF91F2790369078
:1439B0003B822A82B982A88224E100270E94143F88EC90E030
:1439C4009B878A878CE291E0998788878CEC9F838E838DE096
:1439D8009D838C838CE29B838A83222433243982288225E10B
:1439EC0000270E94143F80E191E09B878A878EE39987888706
:143A000087EA9F838E83A09018012A2D33270FE011E00E9492
:143A1400A544C801815A9F4F9D838C8384E791E09B838A83ED
:143A28002A2D332700E111E00E94A544C801429699838883B4
:143A3C0025E100270E94143F80E191E09B878A878CE89987BB
:143A5000888787EA9F838E83A09019012A2D33270FE011E0D4
:143A64000E94A544C80184559F4F9D838C8384E791E09B830A
:143A78008A832A2D332700E111E00E94A544C801805A9F4F8E
:143A8C009983888325E100270E94143F80E191E09B878A87D8
:143AA00089ED9987888787EA9F838E83A09021012A2D3327C6
:143AB4000FE011E00E94A544C80187509F4F9D838C8384E76B
:143AC80091E09B838A832A2D332700E111E00E94A544C80177
:143ADC0083559F4F9983888325E100270E94143F8DE0809347
:143AF0001401FBC180911501843009F095C0C82EDD24CC0CF9
:143B0400DD1CCC0CDD1CCC0CDD1C8EE893E0F601E80FF91F23
:143B1800279036903B862A868CE893E0F601E80FF91FA79087
:143B2C00B690B986A88682E993E0F601E80FF91F2790369071
:143B40003F822E8280E993E0F601E80FF91F279036903D82E2
:143B54002C828EE893E0F601E80FF91F279036903B822A82DA
:143B6800B982A88224E100270E94143F88EC90E09B878A87AC
:143B7C008CE291E0998788878BE890E09F838E838DE091E033
:143B90009D838C83222433243B822A823982288228E1002757
:143BA4000E94143F809117018130E9F480EF90E09B878A874F
:143BB80080E491E0998788878BE890E09F838E838BE192E001
:143BCC009D838C8388E290E09B838A8382E291E099838883B5
:143BE00028E100270E94143F1BC080EF90E09B878A8780E45B
:143BF40091E0998788878BE890E09F838E838DE091E09D8309
:143C08008C8388E290E09B838A8384E19983888328E10027D8
:143C1C000E94143F8FE08093140161C180911501853021F4F5
:143C300080E18093140159C180911501863009F07DC0C82ED4
:143C4400DD24CC0CDD1CCC0CDD1CCC0CDD1C8EE893E0F60118
:143C5800E80FF91F279036903B862A868CE893E0F601E80F86
:143C6C00F91FA790B690B986A88682E993E0F601E80FF91F5E
:143C8000279036903F822E8280E993E0F601E80FF91F2790A9
:143C940036903D822C828EE893E0F601E80FF91F279036907D
:143CA8003B822A82B982A88224E100270E94143F88EC90E035
:143CBC009B878A878CE291E09987888780E092E09F838E83AE
:143CD0008DE091E09D838C8384E79B838A83222433243982E5
:143CE400288222E100270E94143F8AEF90E09B878A878CE279
:143CF80091E09987888780E092E09F838E8320919303332772
:143D0C000FE011E00E94A544A801CA01835F9E4F9D838C83C6
:143D200086EA91E09B838A835983488322E100270E94143FBD
:143D340081E180931401D7C080911501873009F059C0C82E74
:143D4800DD24CC0CDD1CCC0CDD1CCC0CDD1C8EE893E0F60113
:143D5C00E80FF91F279036903B862A868CE893E0F601E80F81
:143D7000F91FA790B690B986A88682E993E0F601E80FF91F59
:143D8400279036903F822E8280E993E0F601E80FF91F2790A4
:143D980036903D822C828EE893E0F601E80FF91F2790369078
:143DAC003B822A82B982A88224E100270E94143F88EC90E030
:143DC0009B878A878CE291E0998788878BE890E09F838E8398
:143DD4008DE091E09D838C83222433243B822A823982288263
:143DE8002AE100270E94143F82E18093140179C080911501B5
:143DFC00883009F074C0C82EDD24CC0CDD1CCC0CDD1CCC0C5D
:143E1000DD1C8EE893E0F601E80FF91F279036903B862A86C8
:143E24008CE893E0F601E80FF91FA790B690B986A88682E948
:143E380093E0F601E80FF91F279036903F822E8280E993E033
:143E4C00F601E80FF91F279036903D822C828EE893E0F60192
:143E6000E80FF91F279036903B822A82B982A88224E10027C8
:143E74000E94143F84E690E09B878A878CE291E0998788872A
:143E880085E49F838E838DE09D838C83222433243B822A82E8
:143E9C00398228822BE100270E94143F22242092AB0380E27D
:143EB0008093FE038093FF038093000480930104809302048D
:143EC40080930304209204048AE2809305042092060480E270
:143ED80080930704209208042092090483E1809314012C96ED
:143EEC000C94F044809114018A3009F009C08091150189306C
:143F000029F40E940A0922242092140108954A935A932C97A4
:143F1400809114018B3009F08CC022E00CED13E00E94560A83
:143F280000931501802F013008F081C0282E3324220C331C99
:143F3C00220C331C220C331C21018EED93E0F101E80FF91F66
:143F5000279036903B862A868CED93E0F201E80FF91F4791A9
:143F640056915987488782EE93E0F201E80FF91F879196918F
:143F7800845690409F838E8380EE93E0F201E80FF91F87915D
:143F8C0096914C979D838C838EED93E0F201E80FF91F8791E0
:143FA0009691845690409B838A83CA014C979983888325E136
:143FB40000270E94143F80E08093D3078093D4078093D507B3
:143FC8008093D60720909303222031F4222433243092D20710
:143FDC002092D1078EEF93E0998388832091D5073091D60705
:143FF0000091D3071091D4070E9456078EEF93E09B878A87B4
:144004008FEF9FEF998788878BEB94E09F838E8382E08C83DF
:1440180081ED8A83222428821091150100E5010390012C5F6D
:14402C003E4F04E511E00E94083F2C965991499108952C974A
:14404000809114018B3009F055C080911501813008F046C0A7
:14405400282E3324220C331C220C331C220C331C21018EED97
:1440680093E0F101E80FF91F279036903B862A868CED93E0F6
:14407C00F201E80FF91F279036903986288682EE93E0F2016E
:14409000E80FF91F87919691845690409F838E8380EE93E010
:1440A400F201E80FF91F879196918C5291409D838C838EED6E
:1440B80093E0F201E80FF91F87919691845690409B838A836B
:1440CC00C1018C5291409983888325E100270E94143F0AC05C
:1440E00080911501813031F403E10E94133F8AE08093140165
:1440F4002C96089508952C9780911401803109F0AAC08091AE
:1441080015018D3008F046C0282E3324220C331C220C331C2B
:14411C00220C331C21018EE093E0F101E80FF91F2790369091
:144130003B862A868CE093E0F201E80FF91F279036903986ED
:14414400288682E193E0F201E80FF91F8791969184569040F8
:144158009F838E8380E193E0F201E80FF91F879196918C522D
:14416C0091409D838C838EE093E0F201E80FF91F879196911D
:14418000845690409B838A83C1018C5291409983888329E1B4
:1441940000270E94143F5FC0809115018A3008F050C08091E2
:1441A800AB03833008F04BC08EEF93E09B878A878FEF9FEF70
:1441BC00998788878BEB94E09F838E8382E08C8381ED8A83B7
:1441D000222428822AE930E00DE411E00E94083F8091AB033E
:1441E400823020F48F5F8093AB0303C022242092AB038EEF6C
:1441F80093E0E091AB03FF27E80FF91F20802092020482E032
:14420C0094E09B878A878BEB94E0998788878FEF9FEF9F83B0
:144220008E8382E08C8381ED8A83222428822AE930E01091D9
:14423400AB030CE001038001035B1E4F0E94083F0AC08091C8
:1442480015018F3031F403E10E94133F8AE0809314012C963C
:14425C0008950E9408452C97809114018C3009F06CC025E0F3
:144270000CEE13E00E94560A00931501043008F062C087EDE0
:1442840097E0202E3324280E391EF101208081E082198083EC
:14429800A0901501EA2CFF24EE0CFF1CEE0CFF1CEE0CFF1C54
:1442AC008EEE93E0F701E80FF91F279036903B862A868CEEA0
:1442C00093E0F701E80FF91FC790D690D986C88682EF93E022
:1442D400F701E80FF91F87919691805590409F838E8387ED44
:1442E80097E0EA2DFF27E80FF91F2081332700E911E00E9488
:1442FC00A544580180EF93E0F701E80FF91F87919691800FB5
:14431000911F8C5291409D838C838EEE93E0F701E80FF91F15
:1443240087919691805590409B838A83C601800F911F8C5292
:1443380091409983888326E100270E94143F2C960C94E944C7
:14434C004A93809114018C3009F028C080911501843021F5CC
:14436000222420921A01442717C087ED97E0E42FFF27E80FD9
:14437400F91F8081813069F480EE97E0E0911A01FF27E80F80
:14438800F91F408380911A018F5F80931A014395443038F387
:14439C0003E10E94133F8AE080931401499108952C97809158
:1443B0001401813109F02EC023E004EC14E00E94560A0093CF
:1443C4001501802F023020F5282E209293038AEF90E09B8730
:1443D8008A878CE291E09987888780E092E09F838E83222D5E
:1443EC0033270FE011E00E94A544C801835F9E4F9D838C8331
:1444000086EA91E09B838A831983088322E100270E94143F56
:144414002C96089580911401813109F00AC0809115018230C1
:1444280031F403E10E94133F8AE08093140108950E940F455E
:14443C002C9780911401833109F060C22DE00CEC11E00E941C
:14445000560A009315010A3008F075C08091AB03863008F07B
:1444640070C0202E3324220C331C220C331C220C331C2101D6
:144478008EEC91E0F101E80FF91F279036903B862A868CECDE
:14448C0091E0F201E80FF91F479156915987488782ED91E05B
:1444A000F201E80FF91F87919691845690409F838E8380ED7D
:1444B40091E0F201E80FF91F879196914D979D838C838EECB5
:1444C80091E0F201E80FF91F87919691845690409B838A8359
:1444DC00CA014D97998388832BE100270E94143F85E094E0F5
:1444F0009B878A878FEF9FEF998788878BEB94E09F838E832D
:1445040082E08C8381ED8A832224288226E930E01091AB0359
:144518000CE001038001015B1E4F0E94083F8EEF93E0E0910B
:14452C00AB03FF27E80FF91F2090150120828091AB038F5F83
:144540008093AB03E1C1809115018A3009F074C080E02090E6
:14455400AB03821508F06EC0A0901501BB24AA0CBB1CAA0C80
:14456800BB1CAA0CBB1C8EEC91E0F501E80FF91F279036906E
:14457C003B862A868CEC91E0F501E80FF91F4791569159872D
:14459000488782ED91E0F501E80FF91F87919691845690407A
:1445A4009F838E8380ED91E0F501E80FF91F879196914D97CA
:1445B8009D838C838EEC91E0F501E80FF91F879196918456B7
:1445CC0090409B838A83CA014D97998388832BE100270E9435
:1445E000143F8091AB0381508093AB038EEF93E0E091AB0314
:1445F400FF27E80FF91F2224208287E094E09B878A878FEF0A
:144608009FEF998788878BEB94E09F838E8382E08C8381EDE5
:14461C008A83288226E930E01091AB030CE001038001015B98
:144630001E4F0E94083F68C1809115018B3009F01CC180912E
:14464400AB03863009F017C1A0901501BB24AA0CBB1CAA0CC5
:14465800BB1CAA0CBB1C8EEC91E0F501E80FF91F279036907D
:14466C003B862A868CEC91E0F501E80FF91F4791569159873C
:14468000488782ED91E0F501E80FF91F879196918456904089
:144694009F838E8380ED91E0F501E80FF91F879196914D97D9
:1446A8009D838C838EEC91E0F501E80FF91F879196918456C6
:1446BC0090409B838A83CA014D97998388832BE100270E9444
:1446D000143F20900904222009F047C02090FE032092E90731
:1446E4002090FF032092EA07209000042092EB072090010460
:1446F8002092EC07209002042092ED07209003042092EE074F
:14470C0022242092AB0380E28093FE038093FF038093000451
:1447200080930104809302048093030481E0809309048EEF3C
:1447340093E09B878A878FEF9FEF998788878BEB94E09F8384
:144748008E8382E08C8381ED8A83288226E930E0122D0CE06C
:14475C0001038001015B1E4F0E94083FCFC02090E907309023
:14477000FE03321409F04EC02090EA073090FF03321409F045
:1447840047C02090EB0730900004321409F040C02090EC07D2
:14479800309001043214D1F52090ED07309002043214A1F5F6
:1447AC002090EE0730900304321471F522242092AB038FE4C8
:1447C0008093FE038BE48093FF038EE28093000480930104AE
:1447D40080930204809303048EEF93E09B878A878FEF9FEF6F
:1447E800998788878BEB94E09F838E8382E08C8381ED8A8385
:1447FC00288226E930E0122D0CE001038001015B1E4F0E94C5
:14481000083F2FC022242092AB0385E48093FE0382E78093BF
:14482400FF03809300048FE68093010482E78093020481E2F5
:14483800809303048EEF93E09B878A878FEF9FEF99878887F4
:14484C008BEB94E09F838E8382E08C8381ED8A83288226E996
:1448600030E0122D0CE001038001015B1E4F0E94083F82E070
:144874008093090447C0809115018C3009F042C0A82EBB2476
:14488800AA0CBB1CAA0CBB1CAA0CBB1C8EEC91E0F501E80F9D
:14489C00F91F279036903B862A868CEC91E0F501E80FF91F14
:1448B000479156915987488782ED91E0F501E80FF91F879189
:1448C4009691845690409F838E8380ED91E0F501E80FF91FF9
:1448D800879196914D979D838C838EEC91E0F501E80FF91F8A
:1448EC0087919691845690409B838A83CA014D9799838883CE
:144900002BE100270E94143F2C960C9414452C9780911401D7
:14491400833109F037C0809115018C30D0F48EEB90E09B8739
:144928008A878CE291E09987888785E49F838E838DE09D8333
:14493C008C838AE590E09B838A8322243324398228822BE140
:1449500000270E94143F809115018B3059F480910904823038
:1449640039F403E10E94133F8AE0809314010AC080911501B7
:144978008C3031F403E10E94133F8AE0809314012C96089581
:14498C00619780919B08813009F496C120909B08222009F4D4
:1449A00091C184E020909B08821508F48BC120901201222016
:1449B40009F05FC0849904C081E0809311011DC0859904C0B1
:1449C80083E08093110117C0869904C084E08093110111C03F
:1449DC00879904C082E0809311010BC02090630020FC04C09E
:1449F00022242092110103C08FEF809311012090110133242A
:144A040040900701509008014214530459F0332430920801C5
:144A180020920701222430920A01209209014EC180911101CF
:144A2C00853050F48091090190910A01019690930A0180935E
:144A4000090106C02224332430920A01209209018091090151
:144A540090910A018530E0E09E0708F431C1222433243092BB
:144A68000A012092090181E08093120127C18091120181302F
:144A7C0009F0BCC080911101843008F04CC0282E2092BA0311
:144A90000E949D0980919C08813099F48091BB03823029F439
:144AA400809165008F7E809365008091BB03833081F48091FB
:144AB8006500877F809365000AC0809165008061809365006E
:144ACC008091650088608093650080919B08815089832090BF
:144AE000B7032A822090B8032B822090B9032C822090B503C2
:144AF4002D822090B3032E822090B4032F822090B6032886BA
:144B08002090BA03298689E088839E012F5F3F4F00E016E474
:144B1C000E94D0363BC0809111018430B9F520909C0881E0A8
:144B3000821980939C0880919B088150898320909C082A828E
:144B440082E088839E012F5F3F4F01E016E40E94D0368091A1
:144B58009C08813099F48091BB03823029F4809165008F7E46
:144B6C00809365008091BB03833081F480916500877F809337
:144B800065000AC080916500806180936500809165008860C5
:144B940080936500849904C081E0809311011DC0859904C06F
:144BA80083E08093110117C0869904C084E08093110111C05D
:144BBC00879904C082E0809311010BC02090630020FC04C0BC
:144BD00022242092110103C08FEF8093110185E0209011013A
:144BE400821520F42224209212016AC082E08093120166C02F
:144BF80080911201823069F5849904C081E0809311011DC031
:144C0C00859904C083E08093110117C0869904C084E08093F9
:144C2000110111C0879904C082E0809311010BC02090630054
:144C340020FC04C022242092110103C08FEF8093110185E0B7
:144C480020901101821508F039C083E08093120135C080917F
:144C5C001201833089F5849904C081E0809311011DC085999E
:144C700004C083E08093110117C0869904C084E080931101A1
:144C840011C0879904C082E0809311010BC02090630020FCE6
:144C980004C022242092110103C08FEF8093110180911101B1
:144CAC00853020F482E08093120106C02224209212018FEF54
:144CC000809311016196089508950E9431452C978091140189
:144CD400853109F00FC1809115018F3009F042C020901001AB
:144CE800222009F03DC0282E3324220C331C220C331C220CAB
:144CFC00331C21018EE295E0F101E80FF91F279036903B860F
:144D10002A868CE295E0F201E80FF91F679076907986688610
:144D240082E395E0F201E80FF91F279036903F822E8280E34E
:144D380095E0F201E80FF91F279036903D822C828EE295E021
:144D4C00F201E80FF91F279036903B822A82798268822CE179
:144D600000270E94143F92C080911501803109F041C020904F
:144D74001001222009F03CC0C82EDD24CC0CDD1CCC0CDD1C4A
:144D8800CC0CDD1C8EE295E0F601E80FF91F279036903B861D
:144D9C002A868CE295E0F601E80FF91FA790B690B986A88680
:144DB00082E395E0F601E80FF91F279036903F822E8280E3BE
:144DC40095E0F601E80FF91F279036903D822C828EE295E091
:144DD800F601E80FF91F279036903B822A82B982A8822CE169
:144DEC0000270E94143F4CC080911501813109F047C0209002
:144E00001001222009F042C0C82EDD24CC0CDD1CCC0CDD1CB7
:144E1400CC0CDD1C8EE295E0F601E80FF91F279036903B8690
:144E28002A868CE295E0F601E80FF91FA790B690B986A886F3
:144E3C0082E395E0F601E80FF91F279036903F822E8280E331
:144E500095E0F601E80FF91F279036903D822C828EE295E004
:144E6400F601E80FF91F279036903B822A82B982A8822CE1DC
:144E780000270E94143F0E940A092224209214010E94334330
:144E8C0080911501873030F4282E20920C010E940F432CC01B
:144EA00040911501473050F08AE0841738F020901001222030
:144EB40019F40E9433431EC0409115014B3048F08EE0841744
:144EC80030F087E080930C010E940F4311C080911501803192
:144EDC0039F420901001222019F40E94334306C08091150180
:144EF000823111F40E947A432C960C9438454A935A932C972B
:144F040080911401873109F049C224E004EC15E00E94560ACC
:144F180000931501002309F0F2C020900001222009F0EDC075
:144F2C008EE690E09B878A8784EA91E09987888788EA90E06A
:144F40009F838E8380EE91E09D838C838EE690E09B838A830D
:144F540084EA91E0998388832DE601E00E94143F8091010147
:144F6800853018F48F5F809301014091010155274030450766
:144F7C00C9F04130E0E05E0791F14230E0E05E0709F44AC0B2
:144F90004330E0E05E0709F462C04430E0E05E0709F47AC086
:144FA4004530E0E05E0709F491C0F8C18AEA90E09B878A8741
:144FB80084EA91E09987888787E592E09F838E838CE390E0E7
:144FCC009D838C838EEF91E09B838A83222433243982288287
:144FE0002DE601E00E94143FDBC18AEA90E09B878A8784EAB3
:144FF40091E09987888787E592E09F838E8388E790E09D83F9
:145008008C838EEF91E09B838A838CE390E0998388832DE653
:14501C0001E00E94143FBEC18AEA90E09B878A8784EA91E035
:145030009987888787E592E09F838E8384EB90E09D838C831E
:145044008EEF91E09B838A8388E790E0998388832DE601E045
:145058000E94143FA1C18AEA90E09B878A8784EA91E09987D7
:14506C00888787E592E09F838E8380EF90E09D838C838EEF85
:1450800091E09B838A8384EB90E0998388832DE601E00E94E4
:14509400143F84C18AEA90E09B878A8784EA91E0998788874B
:1450A80087E592E09F838E838CE291E09D838C838EEF9B833A
:1450BC008A8380EF90E0998388832DE601E00E94143F68C1BB
:1450D0008AEA90E09B878A8784EA91E09987888787E592E0C9
:1450E4009F838E8386E691E09D838C838EEF9B838A838CE263
:1450F800998388832DE601E00E94143F4DC1809115018130AE
:14510C0009F0EFC020900001222009F0EAC084E091E09B875A
:145120008A8784EA9987888780E49F838E8380EE9D838C8399
:1451340084E09B838A8384EA998388832DE601E00E94143F5A
:1451480080E020900101821520F4822D815080930101409130
:14515C000101552740304507C9F04130E0E05E0791F14230C2
:14517000E0E05E0709F44AC04330E0E05E0709F462C04430D4
:14518400E0E05E0709F47AC04530E0E05E0709F491C004C10E
:145198008AEA90E09B878A8784EA91E09987888787E592E000
:1451AC009F838E838CE390E09D838C838EEF91E09B838A8395
:1451C00022243324398228822DE601E00E94143FE7C08AEAD5
:1451D40090E09B878A8784EA91E09987888787E592E09F8316
:1451E8008E8388E790E09D838C838EEF91E09B838A838CE30C
:1451FC0090E0998388832DE601E00E94143FCAC08AEA90E0B1
:145210009B878A8784EA91E09987888787E592E09F838E8338
:1452240084EB90E09D838C838EEF91E09B838A8388E790E070
:14523800998388832DE601E00E94143FADC08AEA90E09B87DF
:14524C008A8784EA91E09987888787E592E09F838E8380EFAF
:1452600090E09D838C838EEF91E09B838A8384EB90E0998387
:1452740088832DE601E00E94143F90C08AEA90E09B878A87CB
:1452880084EA91E09987888787E592E09F838E838CE291E014
:14529C009D838C838EEF9B838A8380EF90E0998388832DE60E
:1452B00001E00E94143F74C08AEA90E09B878A8784EA91E0EA
:1452C4009987888787E592E09F838E8386E691E09D838C838A
:1452D8008EEF9B838A838CE2998388832DE601E00E94143F9C
:1452EC0059C0809115018230D1F480E392E09B878A8780ED82
:145300009987888788E59F838E838CE093E09D838C8380E359
:1453140092E09B838A8380ED998388832DE601E00E94143F6B
:145328003BC0809115018330B9F52090000181E0821980932E
:14533C0000018130C1F480E991E09B878A8784EA998788874C
:145350008CEC9F838E8380EE9D838C8380E99B838A8384EAFF
:14536400998388832DE601E00E94143F17C080E991E09B8752
:145378008A8784EA998788878CEC9F838E8380EE9D838C832B
:14538C0080E99B838A8384EA998388832CE601E00E94143FFC
:1453A0002C965991499108954A935A932C978091140187316B
:1453B40009F0B4C0209015012220E9F48EE690E09B878A877C
:1453C80084EA91E09987888788EA90E09F838E8380EE91E0CF
:1453DC009D838C838EE690E09B838A8384EA91E09983888379
:1453F0002CE601E00E94143F93C0809115018130C1F484E07D
:1454040091E09B878A8784EA9987888780E49F838E8380EE4E
:145418009D838C8384E09B838A8384EA998388832CE601E03A
:14542C000E94143F77C080911501823029F520900001222056
:1454400009F580E392E09B878A8780ED9987888788E59F8327
:145454008E838CE093E09D838C8380E392E09B838A8380EDB8
:14546800998388832CE601E00E94143F0E940A092224209274
:14547C0014010E9433434EC080911501833009F049C08091F4
:145490000001813009F03FC040910101552740304507A9F0BA
:1454A4004130E0E05E07B9F04230E0E05E07C9F04330E0E032
:1454B8005E07D9F04430E0E05E07E9F04530E0E05E07F9F0BD
:1454CC0029C0D99ADA9ADB9ADC9ADD9A23C0D998DA9ADB9A5D
:1454E000DC9ADD9A1DC0D99ADA98DB9ADC9ADD9A17C0D99A5D
:1454F400DA9ADB98DC9ADD9A11C0D99ADA9ADB9ADC98DD9AB8
:145508000BC0D99ADA9ADB9ADC9ADD9805C0D99ADA9ADB9A5C
:14551C00DC9ADD9A2C965991499108954A935A932C978091CD
:1455300014018D3009F094C024E00CE015E00E94560A0093CE
:145544001501402F55274030450751F04130E0E05E0779F155
:145558004230E0E05E0709F455C07EC02090180181E0821993
:14556C008093180180E191E09B878A878EE39987888787EAE9
:145580009F838E8320911801332700E111E00E94A544C8019A
:14559400815A9F4F9D838C8384E791E09B838A83C801429663
:1455A8009983888325E100270E94143F55C02090190181E066
:1455BC0082198093190180E191E09B878A878CE8998788876B
:1455D00087EA9F838E8320911901332700E111E00E94A544A1
:1455E400A801CA0184559F4F9D838C8384E791E09B838A8342
:1455F800CA01805A9F4F9983888325E100270E94143F2AC0D9
:14560C002090210181E082198093210180E191E09B878A8782
:1456200089ED9987888787EA9F838E8320912101332700E11F
:1456340011E00E94A544A801CA0187509F4F9D838C8384E713
:1456480091E09B838A83CA0183559F4F9983888325E10027CD
:14565C000E94143F2C96599149910895809114018D3009F046
:145670000AC080911501833031F403E10E94133F8AE0809308
:14568400140108952C97809114018F3009F047C023E00CEDBC
:1456980014E00E94560A00931501802F0230E8F5282E209299
:1456AC0017010130E9F480EF90E09B878A8780E491E09987BD
:1456C00088878BE890E09F838E838BE192E09D838C8388E23A
:1456D40090E09B838A8382E291E09983888328E100270E9459
:1456E800143F1BC080EF90E09B878A8780E491E0998788876A
:1456FC008BE890E09F838E838DE091E09D838C8388E290E09D
:145710009B838A8384E19983888328E100270E94143F2C96E7
:145724000895809114018F3009F00AC080911501823031F42E
:1457380003E10E94133F8AE08093140108954A935A932C97C9
:14574C0080911401823109F044C023E004EF14E00E94560A87
:1457600000931501402F55274030450729F04130E0E05E0736
:14577400D9F033C08FEF90E09B878A8785E491E0998788873B
:1457880081E09F838E8386E790E09D838C8384EC9B838A83D2
:14579C0089E1998388832AE100270E94143F19C08FEF90E07A
:1457B0009B878A8787EC91E09987888781E09F838E8388EF94
:1457C40090E09D838C8384EC9B838A838BE9998388832AE1F1
:1457D80000270E94143F2C965991499108954A93809114017B
:1457EC00823109F02FC080911501813009F581E080931701AC
:1458000080931801809319012224209216018AE080931F018F
:1458140081E0809321012092220120929303442709C087ED25
:1458280097E0E42FFF27E80FF91F81E0808343954430A8F362
:14583C0080911501833030F403E10E94133F8AE080931401F0
:14585000499108954A935A9320901401222091F520901A01AB
:14586400222071F58091E4039091E5038233E0E09E0770F409
:1458780001E010E00E94B7068091E4039091E5030196909331
:14588C00E5038093E40318C08091E4039091E5038233E0E0D8
:1458A0009E0781F4222420921B0185E1809314010E94530A39
:1458B4000E94334383E390E09093E5038093E4032090A30397
:1458C800222039F48091A403813019F481E08093A3038091BC
:1458DC00A303813009F059C020901F012092200182E0809337
:1458F000A3034091140155274030E0E05E070CF448C087E197
:1459040090E0841795070CF442C08CE890E0FA01EE0FFF1FEC
:14591800E80FF91F27903690F10109940E94870AA0C00E942B
:14592C00540B9DC00E94EB0E9AC00E94241297C00E94C31210
:1459400094C00E944D1391C00E9405148EC00E9493148BC00F
:14595400E9DD89C097DE87C0F4DE85C00E94D41882C00E94EB
:14596800591B7FC00E94871F7CC00E942F2179C00E947C208B
:14597C0076C00E94D62173C00E941C2270C09ED96EC0B7DACF
:145990006CC09AD96AC08091A303823049F48091A403833029
:1459A40009F061C083E08093A3035DC08091A303833009F039
:1459B80055C022242092A3034091140155274030E0E05E0731
:1459CC000CF448C087E190E0841795070CF442C08CEB90E0C7
:1459E000FA01EE0FFF1FE80FF91F27903690F10109940E94E0
:1459F400E90A39C00E94C30E36C00E940B1133C00E94B41231
:145A080030C00E9440132DC00E94EC132AC00E94441427C04C
:145A1C000E94D51724C00E94A62121C01FDE1FC07CDE1DC0A7
:145A3000DADE1BC00E94171B18C00E94781F15C00E941F2034
:145A440012C00E947D200FC00E940C220CC00E94872409C0BC
:145A580038D907C0A5DC05C034D903C022242092A3030E940C
:145A6C002A4259914991089522242AB82BB886E08093950040
:145A800089E189B92092900088ED8AB90895222420929A003D
:145A940020929B0086E080939D0087E6809399002092980038
:145AA80088ED80939A000895222423BE20BE22BE8CE981BF91
:145ABC0087E083BF089522242EBC8BEF8DBD8EE18CBD84E080
:145AD0008BBD82EE8ABD84E089BD82EE88BD84E08093790074
:145AE40082EE8093780084E087BD82EE86BD2FBC83E08EBDBF
:145AF8000895222426B880EE87B980E888B987E886B9089537
:145B0C00222425BC81E084BD8FEF83BD0895222420928A00DF
:145B20008FEF8093890081E080938800209287008FEF809391
:145B340086002092850080938400209283008093820020928D
:145B480081008093800081E080938B008DE080938A0008958F
:145B5C008FEF8BBB8ABB88BB87BB85BB84BB82BB8FE081BB40
:145B70008FEF83B982B98093620080EF809361008FEF809343
:145B840065008EEF8093640091980895F89422242CBE209280
:145B98006D0020926C00DEDFACDF68DF74DF84DF8CDFB0DF2F
:145BAC00B6DF222425BE20926A002ABE29BE82EC87BF86E022
:145BC00080937D000E949B2F7894089510E20091C2030F5F76
:145BD4000E948D440093C2030E94133F85E0809320010895C8
:145BE8002C978CE48093FE0383E48093FF0384E48093000467
:145BFC0080E28093010486E58093020485E68093030482E7A9
:145C1000809304048AE3809305042090BE03209206042090FF
:145C2400BF03209207042090C003209208042090C103209296
:145C38000904222420920A048EEF93E09B878A878FEF9FEF16
:145C4C009987888780E098EF9F838E8382E08C8381E88A8314
:145C6000288226E232E0002711270E94083F85E196E09B8726
:145C74008A878FEF9FEF9987888780E098EF9F838E8382E054
:145C88008C8381E88A83222428822AE332E0002711270E9473
:145C9C00093F2C9608954A932697F89473DF789421E030E0B8
:145CB00000E010E10E946D36DD9AD99ADA9ADB9ADC9A81E020
:145CC40090E0998388832FE131E009E010E00E94B0458AE03A
:145CD80020901F01821560F480931F0181E090E099838883D2
:145CEC002FE131E009E010E00E94CB4544270FC085E196E0E2
:145D0000E42FFF27E80FF91F269084E598E0E42FFF27E80F80
:145D1400F91F208243954A3078F380E190E09983888324E503
:145D280038E002E810E00E94CB4544270FC08FE196E0E42F90
:145D3C00FF27E80FF91F269084E698E0E42FFF27E80FF91F3E
:145D5000208243954B3078F380E190E09983888324E638E0C5
:145D640002E910E00E94CB4544270FC08AE296E0E42FFF2749
:145D7800E80FF91F269084E798E0E42FFF27E80FF91F208285
:145D8C0043954B3078F380E190E09983888324E738E002EA3E
:145DA00010E00E94CB4580E190E09983888324E838E002EB44
:145DB40010E00E94B04581E090E09983888328E938E007EC40
:145DC80010E00E94B04581E020909808821518F0822D803091
:145DDC0068F422242092980881E090E09983888328E938E09E
:145DF00007EC10E00E94CB4581E090E09983888329E938E0E8
:145E040008EC10E00E94B04581E090E0998388832AE938E0EC
:145E180009EC10E00E94B04520909A082092D00784E682151E
:145E2C0060F48093D00781E090E0998388832AE938E009EC0C
:145E400010E00E94CB458091D007803068F484E68093D00764
:145E540081E090E0998388832AE938E009EC10E00E94CB4580
:145E6800222420929C0820929B0808E918E00E94B70681E08C
:145E7C0090E09983888324E938E003EC10E00E94B0458091CF
:145E90009408813098F081E08093940800270E9401362224D3
:145EA40020929F0881E090E09983888324E938E003EC10E095
:145EB8000E94CB4580919408803098F481E080939408002704
:145ECC000E940136222420929F0881E090E09983888324E945
:145EE00038E003EC10E00E94CB4520909408222031F407E16A
:145EF4000E94013687E180939F080E949B2F26964991089500
:145F080010931D0100931C0120901C0130901D012220D1F75F
:145F1C003320C1F70895222420920F0120900F013324201674
:145F30003106D0F308950E94862D82E785BD08950E94862DD4
:145F440088B38F7788BB089522242DBC81E08CBD82EE94E06B
:145F5800909379008093780080917D00816080937D00089572
:145F6C0080E020902001821530F4822D815080932001D89A0F
:145F800001C0D89808958091C3039091C40301969093C403FF
:145F94008093C30380E590E02090C3033090C403821593051F
:145FA80080F42090A7033090A80320920B012224332430928F
:145FBC00A8032092A7033092C4032092C30380B199278470E4
:145FD00090702090C5033090C60328163906A9F080B19927B5
:145FE400847090709093C6038093C5038091A7039091A80367
:145FF8008F3FE0E09E0728F401969093A8038093A703089587
:14600C000A921A922A923A924A925A926A927A928A929A9298
:146020000A931A932A933A938A939A93AA93BA93EA93FA93BA
:146034000FB60A92222422BE87E981BF80910F018F5F8093FF
:146048000F0190DF20901C0130901D01222011F4332031F05F
